{
  "_format": "hh-sol-artifact-1",
  "contractName": "SecureOnlineShop",
  "sourceName": "contracts/SecureOnlineShop.sol",
  "abi": [
    {
      "inputs": [],
      "stateMutability": "nonpayable",
      "type": "constructor"
    },
    {
      "inputs": [],
      "name": "admin",
      "outputs": [
        {
          "internalType": "address",
          "name": "",
          "type": "address"
        }
      ],
      "stateMutability": "view",
      "type": "function"
    },
    {
      "inputs": [
        {
          "internalType": "address",
          "name": "",
          "type": "address"
        },
        {
          "internalType": "uint256",
          "name": "",
          "type": "uint256"
        }
      ],
      "name": "buyerOrders",
      "outputs": [
        {
          "internalType": "uint256",
          "name": "",
          "type": "uint256"
        }
      ],
      "stateMutability": "view",
      "type": "function"
    },
    {
      "inputs": [
        {
          "internalType": "uint256",
          "name": "orderId",
          "type": "uint256"
        }
      ],
      "name": "cancelOrder",
      "outputs": [],
      "stateMutability": "nonpayable",
      "type": "function"
    },
    {
      "inputs": [
        {
          "internalType": "uint256",
          "name": "orderId",
          "type": "uint256"
        }
      ],
      "name": "confirmDelivery",
      "outputs": [],
      "stateMutability": "nonpayable",
      "type": "function"
    },
    {
      "inputs": [
        {
          "internalType": "uint256",
          "name": "productId",
          "type": "uint256"
        }
      ],
      "name": "deactivateProduct",
      "outputs": [],
      "stateMutability": "nonpayable",
      "type": "function"
    },
    {
      "inputs": [],
      "name": "emergencyWithdraw",
      "outputs": [],
      "stateMutability": "nonpayable",
      "type": "function"
    },
    {
      "inputs": [],
      "name": "getActiveProducts",
      "outputs": [
        {
          "components": [
            {
              "internalType": "uint256",
              "name": "id",
              "type": "uint256"
            },
            {
              "internalType": "address",
              "name": "seller",
              "type": "address"
            },
            {
              "internalType": "string",
              "name": "name",
              "type": "string"
            },
            {
              "internalType": "string",
              "name": "description",
              "type": "string"
            },
            {
              "internalType": "uint256",
              "name": "price",
              "type": "uint256"
            },
            {
              "internalType": "uint256",
              "name": "stock",
              "type": "uint256"
            },
            {
              "internalType": "bool",
              "name": "isActive",
              "type": "bool"
            }
          ],
          "internalType": "struct SecureOnlineShop.Product[]",
          "name": "",
          "type": "tuple[]"
        }
      ],
      "stateMutability": "view",
      "type": "function"
    },
    {
      "inputs": [],
      "name": "getAllOrders",
      "outputs": [
        {
          "components": [
            {
              "internalType": "uint256",
              "name": "orderId",
              "type": "uint256"
            },
            {
              "internalType": "uint256",
              "name": "productId",
              "type": "uint256"
            },
            {
              "internalType": "address",
              "name": "buyer",
              "type": "address"
            },
            {
              "internalType": "address",
              "name": "seller",
              "type": "address"
            },
            {
              "internalType": "uint256",
              "name": "quantity",
              "type": "uint256"
            },
            {
              "internalType": "uint256",
              "name": "totalAmount",
              "type": "uint256"
            },
            {
              "internalType": "enum SecureOnlineShop.OrderStatus",
              "name": "status",
              "type": "uint8"
            },
            {
              "internalType": "uint256",
              "name": "createdAt",
              "type": "uint256"
            },
            {
              "internalType": "uint256",
              "name": "paidAt",
              "type": "uint256"
            },
            {
              "internalType": "uint256",
              "name": "shippedAt",
              "type": "uint256"
            },
            {
              "internalType": "uint256",
              "name": "deliveredAt",
              "type": "uint256"
            },
            {
              "internalType": "enum SecureOnlineShop.DisputeResolution",
              "name": "disputeResolution",
              "type": "uint8"
            },
            {
              "internalType": "address",
              "name": "disputeResolver",
              "type": "address"
            }
          ],
          "internalType": "struct SecureOnlineShop.Order[]",
          "name": "",
          "type": "tuple[]"
        }
      ],
      "stateMutability": "view",
      "type": "function"
    },
    {
      "inputs": [
        {
          "internalType": "address",
          "name": "buyer",
          "type": "address"
        }
      ],
      "name": "getBuyerOrders",
      "outputs": [
        {
          "components": [
            {
              "internalType": "uint256",
              "name": "orderId",
              "type": "uint256"
            },
            {
              "internalType": "uint256",
              "name": "productId",
              "type": "uint256"
            },
            {
              "internalType": "address",
              "name": "buyer",
              "type": "address"
            },
            {
              "internalType": "address",
              "name": "seller",
              "type": "address"
            },
            {
              "internalType": "uint256",
              "name": "quantity",
              "type": "uint256"
            },
            {
              "internalType": "uint256",
              "name": "totalAmount",
              "type": "uint256"
            },
            {
              "internalType": "enum SecureOnlineShop.OrderStatus",
              "name": "status",
              "type": "uint8"
            },
            {
              "internalType": "uint256",
              "name": "createdAt",
              "type": "uint256"
            },
            {
              "internalType": "uint256",
              "name": "paidAt",
              "type": "uint256"
            },
            {
              "internalType": "uint256",
              "name": "shippedAt",
              "type": "uint256"
            },
            {
              "internalType": "uint256",
              "name": "deliveredAt",
              "type": "uint256"
            },
            {
              "internalType": "enum SecureOnlineShop.DisputeResolution",
              "name": "disputeResolution",
              "type": "uint8"
            },
            {
              "internalType": "address",
              "name": "disputeResolver",
              "type": "address"
            }
          ],
          "internalType": "struct SecureOnlineShop.Order[]",
          "name": "",
          "type": "tuple[]"
        }
      ],
      "stateMutability": "view",
      "type": "function"
    },
    {
      "inputs": [],
      "name": "getContractBalance",
      "outputs": [
        {
          "internalType": "uint256",
          "name": "",
          "type": "uint256"
        }
      ],
      "stateMutability": "view",
      "type": "function"
    },
    {
      "inputs": [
        {
          "internalType": "uint256",
          "name": "orderId",
          "type": "uint256"
        }
      ],
      "name": "getOrder",
      "outputs": [
        {
          "components": [
            {
              "internalType": "uint256",
              "name": "orderId",
              "type": "uint256"
            },
            {
              "internalType": "uint256",
              "name": "productId",
              "type": "uint256"
            },
            {
              "internalType": "address",
              "name": "buyer",
              "type": "address"
            },
            {
              "internalType": "address",
              "name": "seller",
              "type": "address"
            },
            {
              "internalType": "uint256",
              "name": "quantity",
              "type": "uint256"
            },
            {
              "internalType": "uint256",
              "name": "totalAmount",
              "type": "uint256"
            },
            {
              "internalType": "enum SecureOnlineShop.OrderStatus",
              "name": "status",
              "type": "uint8"
            },
            {
              "internalType": "uint256",
              "name": "createdAt",
              "type": "uint256"
            },
            {
              "internalType": "uint256",
              "name": "paidAt",
              "type": "uint256"
            },
            {
              "internalType": "uint256",
              "name": "shippedAt",
              "type": "uint256"
            },
            {
              "internalType": "uint256",
              "name": "deliveredAt",
              "type": "uint256"
            },
            {
              "internalType": "enum SecureOnlineShop.DisputeResolution",
              "name": "disputeResolution",
              "type": "uint8"
            },
            {
              "internalType": "address",
              "name": "disputeResolver",
              "type": "address"
            }
          ],
          "internalType": "struct SecureOnlineShop.Order",
          "name": "",
          "type": "tuple"
        }
      ],
      "stateMutability": "view",
      "type": "function"
    },
    {
      "inputs": [
        {
          "internalType": "uint256",
          "name": "productId",
          "type": "uint256"
        }
      ],
      "name": "getProduct",
      "outputs": [
        {
          "components": [
            {
              "internalType": "uint256",
              "name": "id",
              "type": "uint256"
            },
            {
              "internalType": "address",
              "name": "seller",
              "type": "address"
            },
            {
              "internalType": "string",
              "name": "name",
              "type": "string"
            },
            {
              "internalType": "string",
              "name": "description",
              "type": "string"
            },
            {
              "internalType": "uint256",
              "name": "price",
              "type": "uint256"
            },
            {
              "internalType": "uint256",
              "name": "stock",
              "type": "uint256"
            },
            {
              "internalType": "bool",
              "name": "isActive",
              "type": "bool"
            }
          ],
          "internalType": "struct SecureOnlineShop.Product",
          "name": "",
          "type": "tuple"
        }
      ],
      "stateMutability": "view",
      "type": "function"
    },
    {
      "inputs": [
        {
          "internalType": "address",
          "name": "seller",
          "type": "address"
        }
      ],
      "name": "getSellerSales",
      "outputs": [
        {
          "internalType": "uint256",
          "name": "",
          "type": "uint256"
        }
      ],
      "stateMutability": "view",
      "type": "function"
    },
    {
      "inputs": [
        {
          "internalType": "address",
          "name": "user",
          "type": "address"
        }
      ],
      "name": "hasOrders",
      "outputs": [
        {
          "internalType": "bool",
          "name": "",
          "type": "bool"
        }
      ],
      "stateMutability": "view",
      "type": "function"
    },
    {
      "inputs": [
        {
          "internalType": "uint256",
          "name": "orderId",
          "type": "uint256"
        }
      ],
      "name": "markAsShipped",
      "outputs": [],
      "stateMutability": "nonpayable",
      "type": "function"
    },
    {
      "inputs": [],
      "name": "orderCount",
      "outputs": [
        {
          "internalType": "uint256",
          "name": "",
          "type": "uint256"
        }
      ],
      "stateMutability": "view",
      "type": "function"
    },
    {
      "inputs": [
        {
          "internalType": "uint256",
          "name": "",
          "type": "uint256"
        }
      ],
      "name": "orders",
      "outputs": [
        {
          "internalType": "uint256",
          "name": "orderId",
          "type": "uint256"
        },
        {
          "internalType": "uint256",
          "name": "productId",
          "type": "uint256"
        },
        {
          "internalType": "address",
          "name": "buyer",
          "type": "address"
        },
        {
          "internalType": "address",
          "name": "seller",
          "type": "address"
        },
        {
          "internalType": "uint256",
          "name": "quantity",
          "type": "uint256"
        },
        {
          "internalType": "uint256",
          "name": "totalAmount",
          "type": "uint256"
        },
        {
          "internalType": "enum SecureOnlineShop.OrderStatus",
          "name": "status",
          "type": "uint8"
        },
        {
          "internalType": "uint256",
          "name": "createdAt",
          "type": "uint256"
        },
        {
          "internalType": "uint256",
          "name": "paidAt",
          "type": "uint256"
        },
        {
          "internalType": "uint256",
          "name": "shippedAt",
          "type": "uint256"
        },
        {
          "internalType": "uint256",
          "name": "deliveredAt",
          "type": "uint256"
        },
        {
          "internalType": "enum SecureOnlineShop.DisputeResolution",
          "name": "disputeResolution",
          "type": "uint8"
        },
        {
          "internalType": "address",
          "name": "disputeResolver",
          "type": "address"
        }
      ],
      "stateMutability": "view",
      "type": "function"
    },
    {
      "inputs": [],
      "name": "productCount",
      "outputs": [
        {
          "internalType": "uint256",
          "name": "",
          "type": "uint256"
        }
      ],
      "stateMutability": "view",
      "type": "function"
    },
    {
      "inputs": [
        {
          "internalType": "uint256",
          "name": "",
          "type": "uint256"
        }
      ],
      "name": "products",
      "outputs": [
        {
          "internalType": "uint256",
          "name": "id",
          "type": "uint256"
        },
        {
          "internalType": "address",
          "name": "seller",
          "type": "address"
        },
        {
          "internalType": "string",
          "name": "name",
          "type": "string"
        },
        {
          "internalType": "string",
          "name": "description",
          "type": "string"
        },
        {
          "internalType": "uint256",
          "name": "price",
          "type": "uint256"
        },
        {
          "internalType": "uint256",
          "name": "stock",
          "type": "uint256"
        },
        {
          "internalType": "bool",
          "name": "isActive",
          "type": "bool"
        }
      ],
      "stateMutability": "view",
      "type": "function"
    },
    {
      "inputs": [
        {
          "internalType": "uint256",
          "name": "productId",
          "type": "uint256"
        },
        {
          "internalType": "uint256",
          "name": "quantity",
          "type": "uint256"
        }
      ],
      "name": "purchaseProduct",
      "outputs": [],
      "stateMutability": "payable",
      "type": "function"
    },
    {
      "inputs": [
        {
          "internalType": "string",
          "name": "_name",
          "type": "string"
        },
        {
          "internalType": "string",
          "name": "_description",
          "type": "string"
        },
        {
          "internalType": "uint256",
          "name": "_price",
          "type": "uint256"
        },
        {
          "internalType": "uint256",
          "name": "_stock",
          "type": "uint256"
        }
      ],
      "name": "registerProduct",
      "outputs": [
        {
          "internalType": "uint256",
          "name": "",
          "type": "uint256"
        }
      ],
      "stateMutability": "nonpayable",
      "type": "function"
    },
    {
      "inputs": [
        {
          "internalType": "uint256",
          "name": "orderId",
          "type": "uint256"
        }
      ],
      "name": "reportDispute",
      "outputs": [],
      "stateMutability": "nonpayable",
      "type": "function"
    },
    {
      "inputs": [
        {
          "internalType": "uint256",
          "name": "orderId",
          "type": "uint256"
        },
        {
          "internalType": "bool",
          "name": "buyerWins",
          "type": "bool"
        }
      ],
      "name": "resolveDispute",
      "outputs": [],
      "stateMutability": "nonpayable",
      "type": "function"
    },
    {
      "inputs": [
        {
          "internalType": "address",
          "name": "",
          "type": "address"
        },
        {
          "internalType": "uint256",
          "name": "",
          "type": "uint256"
        }
      ],
      "name": "sellerOrders",
      "outputs": [
        {
          "internalType": "uint256",
          "name": "",
          "type": "uint256"
        }
      ],
      "stateMutability": "view",
      "type": "function"
    },
    {
      "inputs": [
        {
          "internalType": "address",
          "name": "newAdmin",
          "type": "address"
        }
      ],
      "name": "transferAdmin",
      "outputs": [],
      "stateMutability": "nonpayable",
      "type": "function"
    },
    {
      "inputs": [
        {
          "internalType": "uint256",
          "name": "productId",
          "type": "uint256"
        },
        {
          "internalType": "string",
          "name": "_name",
          "type": "string"
        },
        {
          "internalType": "string",
          "name": "_description",
          "type": "string"
        },
        {
          "internalType": "uint256",
          "name": "_price",
          "type": "uint256"
        },
        {
          "internalType": "uint256",
          "name": "_stock",
          "type": "uint256"
        }
      ],
      "name": "updateProduct",
      "outputs": [],
      "stateMutability": "nonpayable",
      "type": "function"
    }
  ],
  "bytecode": "0x608060405234801561001057600080fd5b50600080546001600160a01b031916331790556128c0806100326000396000f3fe6080604052600436106101815760003560e01c8063a6fa0206116100d1578063d09ef2411161008a578063f851a44011610064578063f851a4401461050b578063f94eb18214610543578063fd77e5de14610563578063fd84cb971461058357600080fd5b8063d09ef241146104b3578063db2e21bc146104e0578063e0f6ef87146104f557600080fd5b8063a6fa020614610354578063a85c38ef14610374578063b9db15b414610424578063bd99840e14610451578063c38f01aa14610471578063ca0f46c01461049157600080fd5b80636f9fb98a1161013e5780637bea0d1c116101185780637bea0d1c146102b75780639c240474146102d9578063a044042614610321578063a45f2ebc1461033457600080fd5b80636f9fb98a1461025157806375829def146102645780637acc0b201461028457600080fd5b80632453ffa81461018657806334b25ee2146101af57806343561aa0146101d15780634500cb60146101f157806345cb450514610211578063514fcac714610231575b600080fd5b34801561019257600080fd5b5061019c60065481565b6040519081526020015b60405180910390f35b3480156101bb57600080fd5b506101cf6101ca366004612059565b6105a3565b005b3480156101dd57600080fd5b506101cf6101ec36600461208e565b6106fb565b3480156101fd57600080fd5b5061019c61020c3660046120c3565b61082a565b34801561021d57600080fd5b5061019c61022c3660046120c3565b61085b565b34801561023d57600080fd5b506101cf61024c36600461208e565b610877565b34801561025d57600080fd5b504761019c565b34801561027057600080fd5b506101cf61027f3660046120ed565b610a10565b34801561029057600080fd5b506102a461029f36600461208e565b610aa4565b6040516101a69796959493929190612155565b3480156102c357600080fd5b506102cc610bff565b6040516101a691906122b2565b3480156102e557600080fd5b506103116102f43660046120ed565b6001600160a01b0316600090815260036020526040902054151590565b60405190151581526020016101a6565b6101cf61032f366004612301565b610db0565b34801561034057600080fd5b506102cc61034f3660046120ed565b611157565b34801561036057600080fd5b5061019c61036f3660046120ed565b611387565b34801561038057600080fd5b5061040b61038f36600461208e565b600260208190526000918252604090912080546001820154928201546003830154600484015460058501546006860154600787015460088801546009890154600a8a0154600b909a0154989a996001600160a01b0398891699978916989697959660ff958616969495939492939192918216916101009004168d565b6040516101a69d9c9b9a99989796959493929190612323565b34801561043057600080fd5b5061044461043f36600461208e565b611424565b6040516101a69190612422565b34801561045d57600080fd5b506101cf61046c36600461208e565b611606565b34801561047d57600080fd5b5061019c61048c3660046124d8565b6116f1565b34801561049d57600080fd5b506104a661187e565b6040516101a6919061254c565b3480156104bf57600080fd5b506104d36104ce36600461208e565b611b12565b6040516101a691906125ae565b3480156104ec57600080fd5b506101cf611c7b565b34801561050157600080fd5b5061019c60055481565b34801561051757600080fd5b5060005461052b906001600160a01b031681565b6040516001600160a01b0390911681526020016101a6565b34801561054f57600080fd5b506101cf61055e3660046125c3565b611d27565b34801561056f57600080fd5b506101cf61057e36600461208e565b611df3565b34801561058f57600080fd5b506101cf61059e36600461208e565b611e4b565b6000546001600160a01b031633146105d65760405162461bcd60e51b81526004016105cd90612642565b60405180910390fd5b60008281526002602052604090206005600682015460ff1660058111156105ff576105ff6121b3565b1461064c5760405162461bcd60e51b815260206004820152601860248201527f4f72646572206d75737420626520696e2064697370757465000000000000000060448201526064016105cd565b81156106a757600b8101805460ff19166001179055600281015460058201546040516001600160a01b03909216916108fc82150291906000818181858888f193505050501580156106a1573d6000803e3d6000fd5b50505050565b600b8101805460ff19166002179055600381015460058201546040516001600160a01b03909216916108fc82150291906000818181858888f193505050501580156106a1573d6000803e3d6000fd5b505050565b6000818152600260208190526040909120908101546001600160a01b0316331480610732575060038101546001600160a01b031633145b61078e5760405162461bcd60e51b815260206004820152602760248201527f4f6e6c79206275796572206f722073656c6c65722063616e207265706f7274206044820152666469737075746560c81b60648201526084016105cd565b6001600682015460ff1660058111156107a9576107a96121b3565b14806107cd57506002600682015460ff1660058111156107cb576107cb6121b3565b145b6108195760405162461bcd60e51b815260206004820152601d60248201527f4f72646572206d7573742062652070616964206f72207368697070656400000060448201526064016105cd565b600601805460ff1916600517905550565b6003602052816000526040600020818154811061084657600080fd5b90600052602060002001600091509150505481565b6004602052816000526040600020818154811061084657600080fd5b6000818152600260208190526040909120908101546001600160a01b031633146108db5760405162461bcd60e51b815260206004820152601560248201527413db9b1e48189d5e595c8818d85b8818d85b98d95b605a1b60448201526064016105cd565b6001600682015460ff1660058111156108f6576108f66121b3565b1461094d5760405162461bcd60e51b815260206004820152602160248201527f4f6e6c792070616964206f72646572732063616e2062652063616e63656c6c656044820152601960fa1b60648201526084016105cd565b600881015461095f9062093a80612699565b42116109c15760405162461bcd60e51b815260206004820152602b60248201527f43616e206f6e6c792063616e63656c20616674657220372064617973206f662060448201526a1b9bc81cda1a5c1b595b9d60aa1b60648201526084016105cd565b60068101805460ff19166004179055600281015460058201546040516001600160a01b03909216916108fc82150291906000818181858888f193505050501580156106f6573d6000803e3d6000fd5b6000546001600160a01b03163314610a3a5760405162461bcd60e51b81526004016105cd90612642565b6001600160a01b038116610a825760405162461bcd60e51b815260206004820152600f60248201526e496e76616c6964206164647265737360881b60448201526064016105cd565b600080546001600160a01b0319166001600160a01b0392909216919091179055565b60016020819052600091825260409091208054918101546002820180546001600160a01b039092169291610ad7906126ac565b80601f0160208091040260200160405190810160405280929190818152602001828054610b03906126ac565b8015610b505780601f10610b2557610100808354040283529160200191610b50565b820191906000526020600020905b815481529060010190602001808311610b3357829003601f168201915b505050505090806003018054610b65906126ac565b80601f0160208091040260200160405190810160405280929190818152602001828054610b91906126ac565b8015610bde5780601f10610bb357610100808354040283529160200191610bde565b820191906000526020600020905b815481529060010190602001808311610bc157829003601f168201915b50505050600483015460058401546006909401549293909290915060ff1687565b6060600060065467ffffffffffffffff811115610c1e57610c1e612435565b604051908082528060200260200182016040528015610c5757816020015b610c44611f75565b815260200190600190039081610c3c5790505b50905060015b6006548111610daa5760008181526002602081815260409283902083516101a08101855281548152600182015492810192909252918201546001600160a01b0390811693820193909352600382015490921660608301526004810154608083015260058082015460a0840152600682015460c084019160ff90911690811115610ce857610ce86121b3565b6005811115610cf957610cf96121b3565b8152600782015460208201526008820154604082015260098201546060820152600a8201546080820152600b82015460a09091019060ff166002811115610d4257610d426121b3565b6002811115610d5357610d536121b3565b8152600b919091015461010090046001600160a01b031660209091015282610d7c6001846126e0565b81518110610d8c57610d8c6126f3565b60200260200101819052508080610da290612709565b915050610c5d565b50919050565b81600081118015610dc357506005548111155b610e045760405162461bcd60e51b8152602060048201526012602482015271125b9d985b1a59081c1c9bd91d58dd08125160721b60448201526064016105cd565b60008181526001602052604090206006015460ff16610e5d5760405162461bcd60e51b815260206004820152601560248201527450726f64756374206973206e6f742061637469766560581b60448201526064016105cd565b600083815260016020526040902082610eb85760405162461bcd60e51b815260206004820152601f60248201527f5175616e74697479206d7573742062652067726561746572207468616e20300060448201526064016105cd565b8060050154831115610f015760405162461bcd60e51b8152602060048201526012602482015271496e73756666696369656e742073746f636b60701b60448201526064016105cd565b828160040154610f119190612722565b3414610f5f5760405162461bcd60e51b815260206004820152601860248201527f496e636f7272656374207061796d656e7420616d6f756e74000000000000000060448201526064016105cd565b82816005016000828254610f7391906126e0565b909155505060068054906000610f8883612709565b9091555050604080516101a081018252600680548083526020808401898152338587019081526001888101546001600160a01b0390811660608901908152608089018d81523460a08b0190815260c08b018581524260e08d018190526101008d015260006101208d018190526101408d018190526101608d018190526101808d01819052998a526002988990529b9098208a518155955186850155935195850180546001600160a01b03199081169784169790971790555160038501805490961691161790935551600482015591516005808401919091559451928201805494959294909260ff199190911691908490811115611087576110876121b3565b021790555060e0820151600782015561010082015160088201556101208201516009820155610140820151600a820155610160820151600b8201805460ff191660018360028111156110db576110db6121b3565b02179055506101809190910151600b9091018054610100600160a81b0319166101006001600160a01b039384160217905533600090815260036020908152604080832060068054825460018181018555938752858720015595810154909416835260048252822093548454938401855593825290200155505050565b6001600160a01b03811660009081526003602090815260408083208054825181850281018501909352808352606094938301828280156111b657602002820191906000526020600020905b8154815260200190600101908083116111a2575b505050505090506000815167ffffffffffffffff8111156111d9576111d9612435565b60405190808252806020026020018201604052801561121257816020015b6111ff611f75565b8152602001906001900390816111f75790505b50905060005b825181101561137f5760026000848381518110611237576112376126f3565b602090810291909101810151825281810192909252604090810160002081516101a0810183528154815260018201549381019390935260028101546001600160a01b0390811692840192909252600381015490911660608301526004810154608083015260058082015460a0840152600682015460c084019160ff909116908111156112c5576112c56121b3565b60058111156112d6576112d66121b3565b8152600782015460208201526008820154604082015260098201546060820152600a8201546080820152600b82015460a09091019060ff16600281111561131f5761131f6121b3565b6002811115611330576113306121b3565b8152600b919091015461010090046001600160a01b03166020909101528251839083908110611361576113616126f3565b6020026020010181905250808061137790612709565b915050611218565b509392505050565b60008060015b600654811161141d576000818152600260205260409020600301546001600160a01b0385811691161480156113e75750600360008281526002602052604090206006015460ff1660058111156113e5576113e56121b3565b145b1561140b576000818152600260205260409020600501546114089083612699565b91505b8061141581612709565b91505061138d565b5092915050565b61142c612011565b60008211801561143e57506005548211155b61147f5760405162461bcd60e51b8152602060048201526012602482015271125b9d985b1a59081c1c9bd91d58dd08125160721b60448201526064016105cd565b600082815260016020818152604092839020835160e08101855281548152928101546001600160a01b03169183019190915260028101805492939192918401916114c8906126ac565b80601f01602080910402602001604051908101604052809291908181526020018280546114f4906126ac565b80156115415780601f1061151657610100808354040283529160200191611541565b820191906000526020600020905b81548152906001019060200180831161152457829003601f168201915b5050505050815260200160038201805461155a906126ac565b80601f0160208091040260200160405190810160405280929190818152602001828054611586906126ac565b80156115d35780601f106115a8576101008083540402835291602001916115d3565b820191906000526020600020905b8154815290600101906020018083116115b657829003601f168201915b5050509183525050600482015460208201526005820154604082015260069091015460ff16151560609091015292915050565b600081815260026020526040902060038101546001600160a01b031633146116705760405162461bcd60e51b815260206004820152601f60248201527f4f6e6c792073656c6c65722063616e206d61726b20617320736869707065640060448201526064016105cd565b6001600682015460ff16600581111561168b5761168b6121b3565b146116d85760405162461bcd60e51b815260206004820152601860248201527f4f72646572206d7573742062652070616964206669727374000000000000000060448201526064016105cd565b60068101805460ff191660021790554260099091015550565b60008083116117425760405162461bcd60e51b815260206004820152601c60248201527f5072696365206d7573742062652067726561746572207468616e20300000000060448201526064016105cd565b600082116117925760405162461bcd60e51b815260206004820152601c60248201527f53746f636b206d7573742062652067726561746572207468616e20300000000060448201526064016105cd565b600580549060006117a283612709565b90915550506040805160e0810182526005548082523360208084019182528385018a8152606085018a90526080850189905260a08501889052600160c086018190526000948552918290529490922083518155905191810180546001600160a01b0319166001600160a01b03909316929092179091559151909190600282019061182c9082612787565b50606082015160038201906118419082612787565b506080820151600482015560a082015160058083019190915560c0909201516006909101805460ff19169115159190911790555495945050505050565b6060600060015b60055481116118c85760008181526001602052604090206006015460ff16156118b657816118b281612709565b9250505b806118c081612709565b915050611885565b5060008167ffffffffffffffff8111156118e4576118e4612435565b60405190808252806020026020018201604052801561191d57816020015b61190a612011565b8152602001906001900390816119025790505b509050600060015b6005548111611b095760008181526001602052604090206006015460ff1615611af757600081815260016020818152604092839020835160e08101855281548152928101546001600160a01b0316918301919091526002810180549293919291840191611991906126ac565b80601f01602080910402602001604051908101604052809291908181526020018280546119bd906126ac565b8015611a0a5780601f106119df57610100808354040283529160200191611a0a565b820191906000526020600020905b8154815290600101906020018083116119ed57829003601f168201915b50505050508152602001600382018054611a23906126ac565b80601f0160208091040260200160405190810160405280929190818152602001828054611a4f906126ac565b8015611a9c5780601f10611a7157610100808354040283529160200191611a9c565b820191906000526020600020905b815481529060010190602001808311611a7f57829003601f168201915b5050509183525050600482015460208201526005820154604082015260069091015460ff1615156060909101528351849084908110611add57611add6126f3565b60200260200101819052508180611af390612709565b9250505b80611b0181612709565b915050611925565b50909392505050565b611b1a611f75565b600082118015611b2c57506006548211155b611b6b5760405162461bcd60e51b815260206004820152601060248201526f125b9d985b1a59081bdc99195c88125160821b60448201526064016105cd565b60008281526002602081815260409283902083516101a08101855281548152600182015492810192909252918201546001600160a01b0390811693820193909352600382015490921660608301526004810154608083015260058082015460a0840152600682015460c084019160ff90911690811115611bed57611bed6121b3565b6005811115611bfe57611bfe6121b3565b8152600782015460208201526008820154604082015260098201546060820152600a8201546080820152600b82015460a09091019060ff166002811115611c4757611c476121b3565b6002811115611c5857611c586121b3565b8152600b919091015461010090046001600160a01b031660209091015292915050565b6000546001600160a01b03163314611ca55760405162461bcd60e51b81526004016105cd90612642565b4780611cea5760405162461bcd60e51b81526020600482015260146024820152734e6f2066756e647320746f20776974686472617760601b60448201526064016105cd565b600080546040516001600160a01b039091169183156108fc02918491818181858888f19350505050158015611d23573d6000803e3d6000fd5b5050565b6000858152600160208190526040909120015485906001600160a01b03163314611d635760405162461bcd60e51b81526004016105cd90612847565b60008311611db35760405162461bcd60e51b815260206004820152601c60248201527f5072696365206d7573742062652067726561746572207468616e20300000000060448201526064016105cd565b600086815260016020526040902060028101611dcf8782612787565b5060038101611dde8682612787565b50600481019390935550600590910155505050565b6000818152600160208190526040909120015481906001600160a01b03163314611e2f5760405162461bcd60e51b81526004016105cd90612847565b506000908152600160205260409020600601805460ff19169055565b6000818152600260208190526040909120908101546001600160a01b03163314611eb75760405162461bcd60e51b815260206004820152601f60248201527f4f6e6c792062757965722063616e20636f6e6669726d2064656c69766572790060448201526064016105cd565b6002600682015460ff166005811115611ed257611ed26121b3565b14611f1f5760405162461bcd60e51b815260206004820152601b60248201527f4f72646572206d7573742062652073686970706564206669727374000000000060448201526064016105cd565b60068101805460ff1916600390811790915542600a83015581015460058201546040516001600160a01b03909216916108fc82150291906000818181858888f193505050501580156106f6573d6000803e3d6000fd5b604051806101a00160405280600081526020016000815260200160006001600160a01b0316815260200160006001600160a01b03168152602001600081526020016000815260200160006005811115611fd057611fd06121b3565b81526020016000815260200160008152602001600081526020016000815260200160006002811115612004576120046121b3565b8152600060209091015290565b6040518060e001604052806000815260200160006001600160a01b03168152602001606081526020016060815260200160008152602001600081526020016000151581525090565b6000806040838503121561206c57600080fd5b823591506020830135801515811461208357600080fd5b809150509250929050565b6000602082840312156120a057600080fd5b5035919050565b80356001600160a01b03811681146120be57600080fd5b919050565b600080604083850312156120d657600080fd5b6120df836120a7565b946020939093013593505050565b6000602082840312156120ff57600080fd5b612108826120a7565b9392505050565b6000815180845260005b8181101561213557602081850181015186830182015201612119565b506000602082860101526020601f19601f83011685010191505092915050565b8781526001600160a01b038716602082015260e06040820181905260009061217f9083018861210f565b8281036060840152612191818861210f565b6080840196909652505060a0810192909252151560c090910152949350505050565b634e487b7160e01b600052602160045260246000fd5b600681106121d9576121d96121b3565b9052565b600381106121d9576121d96121b3565b8051825260208101516020830152604081015161221560408401826001600160a01b03169052565b50606081015161223060608401826001600160a01b03169052565b506080810151608083015260a081015160a083015260c081015161225760c08401826121c9565b5060e0818101519083015261010080820151908301526101208082015190830152610140808201519083015261016080820151612296828501826121dd565b5050610180818101516001600160a01b038116848301526106a1565b6020808252825182820181905260009190848201906040850190845b818110156122f5576122e18385516121ed565b928401926101a092909201916001016122ce565b50909695505050505050565b6000806040838503121561231457600080fd5b50508035926020909101359150565b8d8152602081018d90526001600160a01b038c811660408301528b81166060830152608082018b905260a082018a90526101a082019061236660c084018b6121c9565b8860e084015287610100840152866101208401528561014084015261238f6101608401866121dd565b808416610180840152509e9d5050505050505050505050505050565b8051825260018060a01b0360208201511660208301526000604082015160e060408501526123dc60e085018261210f565b9050606083015184820360608601526123f5828261210f565b9150506080830151608085015260a083015160a085015260c0830151151560c08501528091505092915050565b60208152600061210860208301846123ab565b634e487b7160e01b600052604160045260246000fd5b600082601f83011261245c57600080fd5b813567ffffffffffffffff8082111561247757612477612435565b604051601f8301601f19908116603f0116810190828211818310171561249f5761249f612435565b816040528381528660208588010111156124b857600080fd5b836020870160208301376000602085830101528094505050505092915050565b600080600080608085870312156124ee57600080fd5b843567ffffffffffffffff8082111561250657600080fd5b6125128883890161244b565b9550602087013591508082111561252857600080fd5b506125358782880161244b565b949794965050505060408301359260600135919050565b6000602080830181845280855180835260408601915060408160051b870101925083870160005b828110156125a157603f1988860301845261258f8583516123ab565b94509285019290850190600101612573565b5092979650505050505050565b6101a081016125bd82846121ed565b92915050565b600080600080600060a086880312156125db57600080fd5b85359450602086013567ffffffffffffffff808211156125fa57600080fd5b61260689838a0161244b565b9550604088013591508082111561261c57600080fd5b506126298882890161244b565b9598949750949560608101359550608001359392505050565b60208082526021908201527f4f6e6c792061646d696e2063616e2063616c6c20746869732066756e6374696f6040820152603760f91b606082015260800190565b634e487b7160e01b600052601160045260246000fd5b808201808211156125bd576125bd612683565b600181811c908216806126c057607f821691505b602082108103610daa57634e487b7160e01b600052602260045260246000fd5b818103818111156125bd576125bd612683565b634e487b7160e01b600052603260045260246000fd5b60006001820161271b5761271b612683565b5060010190565b80820281158282048414176125bd576125bd612683565b601f8211156106f657600081815260208120601f850160051c810160208610156127605750805b601f850160051c820191505b8181101561277f5782815560010161276c565b505050505050565b815167ffffffffffffffff8111156127a1576127a1612435565b6127b5816127af84546126ac565b84612739565b602080601f8311600181146127ea57600084156127d25750858301515b600019600386901b1c1916600185901b17855561277f565b600085815260208120601f198616915b82811015612819578886015182559484019460019091019084016127fa565b50858210156128375787850151600019600388901b60f8161c191681555b5050505050600190811b01905550565b60208082526023908201527f4f6e6c792073656c6c65722063616e206d6f6469667920746869732070726f646040820152621d58dd60ea1b60608201526080019056fea26469706673582212207b5968d30d2c40d4660256112d4adb1aebbe3a8b1e3d109dd3b898802838877864736f6c63430008130033",
  "linkReferences": {},
  "deployedLinkReferences": {}
}